:020000040800F2
:10000000008001205D450008F5170008F71700087B
:10001000F9170008FB170008FD1700080000000092
:10002000000000000000000000000000FF170008B2
:100030000118000800000000031800080518000857
:10004000AD450008AD450008AD450008AD450008C8
:10005000AD450008AD4500080D180008AD45000885
:10006000AD450008AD450008AD450008AD450008A8
:10007000AD450008AD450008AD450008AD45000898
:100080001918000829180008AD450008AD450008FA
:10009000AD450008AD450008AD450008AD45000878
:1000A000AD450008AD450008AD450008AD45000868
:1000B000AD450008AD450008AD450008AD45000858
:1000C000AD450008AD450008AD450008AD45000848
:1000D00039180008AD45000849180008AD4500086A
:1000E000AD450008AD450008AD450008AD45000828
:1000F000AD450008AD450008AD450008AD45000818
:10010000AD450008AD450008AD450008AD45000807
:10011000AD450008AD450008AD450008AD450008F7
:10012000AD450008AD450008AD450008AD450008E7
:10013000AD450008AD450008AD450008AD450008D7
:10014000AD450008AD450008AD450008AD450008C7
:10015000AD450008AD450008AD450008AD450008B7
:10016000AD450008AD450008AD450008AD450008A7
:10017000AD450008AD450008AD4500080000000091
:08018000AD450008AD45000883
:1001900010B5054C237833B9044B13B10448AFF3C1
:1001A00000800123237010BDE0010020000000004A
:1001B0009066000808B5034B1BB103490348AFF331
:1001C000008008BD00000000E401002090660008E7
:1001D00081F0004102E000BF83F0004330B54FEAF8
:1001E00041044FEA430594EA050F08BF90EA020F65
:1001F0001FBF54EA000C55EA020C7FEA645C7FEAF8
:10020000655C00F0E2804FEA5454D4EB5555B8BF1A
:100210006D420CDD2C4480EA020281EA030382EA8B
:10022000000083EA010180EA020281EA0303362D1D
:1002300088BF30BD11F0004F4FEA01314FF4801CF0
:100240004CEA113102D0404261EB410113F0004F02
:100250004FEA03334CEA133302D0524263EB4303B9
:1002600094EA050F00F0A780A4F10104D5F1200E57
:100270000DDB02FA0EFC22FA05F2801841F10001B2
:1002800003FA0EF2801843FA05F359410EE0A5F186
:1002900020050EF1200E012A03FA0EFC28BF4CF0B7
:1002A000020C43FA05F3C01851EBE37101F000456D
:1002B00007D54FF0000EDCF1000C7EEB00006EEB7A
:1002C0000101B1F5801F1BD3B1F5001F0CD3490804
:1002D0005FEA30004FEA3C0C04F101044FEA44525B
:1002E00012F5800F80F09A80BCF1004F08BF5FEAE2
:1002F000500C50F1000041EB045141EA050130BDC2
:100300005FEA4C0C404141EB010111F4801FA4F164
:100310000104E9D191F0000F04BF01460020B1FAB9
:1003200081F308BF2033A3F10B03B3F120020CDAF1
:100330000C3208DD02F1140CC2F10C0201FA0CF0CF
:1003400021FA02F10CE002F11402D8BFC2F1200C34
:1003500001FA02F120FA0CFCDCBF41EA0C019040EA
:10036000E41AA2BF01EB0451294330BD6FEA040433
:100370001F3C1CDA0C340EDC04F11404C4F120021E
:1003800020FA04F001FA02F340EA030021FA04F330
:1003900045EA030130BDC4F10C04C4F1200220FA87
:1003A00002F001FA04F340EA0300294630BD21FAC5
:1003B00004F0294630BD94F0000F83F4801306BF8B
:1003C00081F480110134013D4EE77FEA645C18BF7F
:1003D0007FEA655C29D094EA050F08BF90EA020F16
:1003E00005D054EA000C04BF1946104630BD91EA0E
:1003F000030F1EBF0021002030BD5FEA545C05D111
:100400004000494128BF41F0004130BD14F580044F
:100410003CBF01F5801130BD01F0004545F0FE41C3
:1004200041F470014FF0000030BD7FEA645C1ABFF8
:10043000194610467FEA655C1CBF0B46024650EA2F
:10044000013406BF52EA033591EA030F41F400215B
:1004500030BD00BF90F0000F04BF0021704730B5E1
:100460004FF4806404F132044FF000054FF00001B6
:1004700050E700BF90F0000F04BF0021704730B577
:100480004FF4806404F1320410F0004548BF40424C
:100490004FF000013EE700BF42004FEAE2014FEAA1
:1004A00031014FEA02701FBF12F07F4393F07F4F7C
:1004B00081F06051704732F07F4208BF704793F07F
:1004C0007F4F04BF41F40021704730B54FF4607492
:1004D00001F0004521F000411CE700BF50EA010295
:1004E00008BF704730B54FF000050AE050EA01023E
:1004F00008BF704730B511F0004502D5404261EBAE
:1005000041014FF4806404F132045FEA915C3FF4EE
:10051000D8AE4FF003025FEADC0C18BF03325FEA8B
:10052000DC0C18BF033202EBDC02C2F1200300FA3C
:1005300003FC20FA02F001FA03FE40EA0E0021FA61
:1005400002F11444BDE600BF53B94AB9002908BFFF
:1005500000281CBF4FF0FF314FF0FF3000F072B9A0
:10056000ADF1080C6DE904CE00F006F8DDF804E00A
:10057000DDE9022304B070472DE9F047089E0446E8
:100580008846002B4BD18A42154667D9B2FA82F2CF
:100590004AB1C2F1200701FA02F320FA07F79540A9
:1005A00047EA030894404FEA154E230CB8FBFEF7C8
:1005B0001FFA85FC0EFB178843EA084307FB0CF182
:1005C000994209D9EB1807F1FF3080F01B8199425D
:1005D00040F21881023F2B445B1AA4B2B3FBFEF039
:1005E0000EFB103344EA034400FB0CFCA44509D97C
:1005F0002C1900F1FF3380F00781A44540F20481FB
:1006000002382C4440EA0740A4EB0C0400271EB13A
:10061000D4400023C6E900433946BDE8F0878B4249
:1006200009D9002E00F0EB800027C6E9000138460A
:100630003946BDE8F087B3FA83F7002F47D18B42E4
:1006400002D3824200F2FA80841A61EB0303012094
:100650009846002EE0D0C6E90048DDE702B9FFDE8B
:10066000B2FA82F2002A40F08F80491B4FEA154E01
:100670001FFA85F80127B1FBFEFC230C0EFB1C11B1
:1006800043EA014308FB0CF1994207D9EB180CF13E
:10069000FF3002D2994200F2CD808446591AA3B2AB
:1006A000B1FBFEF00EFB101443EA044408FB00F813
:1006B000A04507D92C1900F1FF3302D2A04500F262
:1006C000B6801846A4EB080440EA0C409FE7C7F147
:1006D000200CBB4022FA0CFE4EEA030E01FA07F48E
:1006E00020FA0CF521FA0CF34FEA1E482543B3FB20
:1006F000F8F92C0C08FB19331FFA8EFA44EA03436D
:1007000009FB0AF49C4202FA07F200FA07F10BD93E
:100710001EEB030309F1FF3080F087809C4240F21A
:100720008480A9F1020973441B1BADB2B3FBF8F03E
:1007300008FB103345EA034400FB0AFAA24508D936
:100740001EEB040400F1FF336BD2A24569D90238D5
:10075000744440EA0940A0FB0289A4EB0A044C451A
:10076000C2464B4654D351D0002E69D0B1EB0A0596
:1007700064EB030404FA0CFCFD40FC404CEA050564
:10078000C6E90054002747E7C2F1200320FA03F727
:10079000954001FA02F021FA03F34FEA154E38436F
:1007A000010CB3FBFEF71FFA85F80EFB173341EA85
:1007B000034107FB08F38B4204FA02F407D96918D6
:1007C00007F1FF3C2FD28B422DD9023F2944CB1A8F
:1007D00081B2B3FBFEF00EFB103341EA034100FB94
:1007E00008F38B4207D9691800F1FF3C17D28B42FE
:1007F00015D902382944C91A40EA07473BE737466A
:10080000304609E70746E7E61846FBE64145ABD226
:10081000B8EB020A69EB0E0201381346A4E7604602
:10082000E9E7184695E76746D1E781467CE7023855
:100830002C4447E7ACF1020C2B442FE7384608E77D
:100840003746E9E6704700BF034613F8012B002A3C
:10085000FBD1181A013870470000000000000000AA
:1008600001F0FF01102A2BDB10F0070F08D010F861
:10087000013B013A8B422DD010F0070F42B3F6D165
:10088000F0B441EA012141EA014122F007047FF07E
:1008900000070023F0E80256083C85EA010586EAD5
:1008A000010685FA47F5A3FA87F586FA47F6A5FA11
:1008B00087F68EB9EED1F0BC01F0FF0102F007021D
:1008C00032B110F8013B013A83EA010313B1F8D1C8
:1008D0000020704701387047002D06BF35460338A9
:1008E000073815F0010F07D1013015F4807F02BFE2
:1008F000013015F4C03F0130F0BC0138704700BF33
:1009000070B54FF0FF0C4CF4E06C1CEA11541DBFA5
:100910001CEA135594EA0C0F95EA0C0F00F0DEF870
:100920002C4481EA030621EA4C5123EA4C5350EA55
:10093000013518BF52EA033541F4801143F48013A6
:1009400038D0A0FB02CE4FF00005E1FB02E506F037
:100950000042E0FB03E54FF00006E1FB03569CF08C
:10096000000F18BF4EF0010EA4F1FF04B6F5007F92
:1009700064F5407404D25FEA4E0E6D4146EB060604
:1009800042EAC62141EA55514FEAC52040EA5E508D
:100990004FEACE2EB4F1FD0C88BFBCF5E06F1ED837
:1009A000BEF1004F08BF5FEA500E50F1000041EB6E
:1009B000045170BD06F0004646EA010140EA02001B
:1009C00081EA0301B4EB5C04C2BFD4EB0C0541EA3D
:1009D000045170BD41F480114FF0000E013C00F352
:1009E000AB8014F1360FDEBF002001F0004170BD76
:1009F000C4F10004203C35DA0C341BDC04F114048F
:100A0000C4F1200500FA05F320FA04F001FA05F21A
:100A100040EA020001F0004221F0004110EBD370E7
:100A200021FA04F642EB06015EEA430E08BF20EA13
:100A3000D37070BDC4F10C04C4F1200500FA04F3B6
:100A400020FA05F001FA04F240EA020001F0004148
:100A500010EBD37041F100015EEA430E08BF20EABB
:100A6000D37070BDC4F1200500FA05F24EEA020E03
:100A700020FA04F301FA05F243EA020321FA04F032
:100A800001F0004121FA04F220EA020000EBD370E9
:100A90005EEA430E08BF20EAD37070BD94F0000FE9
:100AA0000FD101F00046400041EB010111F4801F1D
:100AB00008BF013CF7D041EA060195F0000F18BFCE
:100AC000704703F00046520043EB030313F4801F0A
:100AD00008BF013DF7D043EA0603704794EA0C0FC4
:100AE0000CEA135518BF95EA0C0F0CD050EA4106DA
:100AF00018BF52EA4306D1D181EA030101F0004157
:100B00004FF0000070BD50EA410606BF104619467E
:100B100052EA430619D094EA0C0F02D150EA01368A
:100B200013D195EA0C0F05D152EA03361CBF1046CB
:100B300019460AD181EA030101F0004141F0FE416A
:100B400041F470014FF0000070BD41F0FE4141F4EE
:100B5000780170BD70B54FF0FF0C4CF4E06C1CEAEE
:100B600011541DBF1CEA135594EA0C0F95EA0C0FA3
:100B700000F0A7F8A4EB050481EA030E52EA03355E
:100B80004FEA013100F088804FEA03334FF080557F
:100B900045EA131343EA12634FEA022245EA1115AC
:100BA00045EA10654FEA00260EF000419D4208BF5D
:100BB000964244F1FD0404F5407402D25B084FEA0A
:100BC0003202B61A65EB03055B084FEA32024FF4B6
:100BD00080104FF4002CB6EB020E75EB030E22BF13
:100BE000B61A754640EA0C005B084FEA3202B6EBD3
:100BF000020E75EB030E22BFB61A754640EA5C0082
:100C00005B084FEA3202B6EB020E75EB030E22BF11
:100C1000B61A754640EA9C005B084FEA3202B6EB12
:100C2000020E75EB030E22BFB61A754640EADC00D1
:100C300055EA060E18D04FEA051545EA16754FEA33
:100C400006164FEAC30343EA52734FEAC2025FEA51
:100C50001C1CC0D111F4801F0BD141EA00014FF0E0
:100C600000004FF0004CB6E711F4801F04BF0143B1
:100C70000020B4F1FD0C88BFBCF5E06F3FF6AFAECD
:100C8000B5EB030C04BFB6EB020C5FEA500C50F15D
:100C9000000041EB045170BD0EF0004E4EEA1131E0
:100CA00014EB5C04C2BFD4EB0C0541EA045170BDE7
:100CB00041F480114FF0000E013C90E645EA060E2B
:100CC0008DE60CEA135594EA0C0F08BF95EA0C0F59
:100CD0003FF43BAF94EA0C0F0AD150EA01347FF4A1
:100CE00034AF95EA0C0F7FF425AF104619462CE778
:100CF00095EA0C0F06D152EA03353FF4FDAE1046DB
:100D0000194622E750EA410618BF52EA43067FF42B
:100D1000C5AE50EA41047FF40DAF52EA43057FF4BB
:100D2000EBAE12E74FF0FF3C06E000BF4FF0010CC6
:100D300002E000BF4FF0010C4DF804CD4FEA410C2A
:100D40007FEA6C5C4FEA430C18BF7FEA6C5C1BD0F7
:100D500001B050EA410C0CBF52EA430C91EA030F78
:100D600002BF90EA020F0020704710F1000F91EAD5
:100D7000030F58BF994208BF90422CBFD8176FEAA3
:100D8000E37040F0010070474FEA410C7FEA6C5C71
:100D900002D150EA013C07D14FEA430C7FEA6C5C78
:100DA000D6D152EA033CD3D05DF8040B704700BFA4
:100DB0008446104662468C461946634600E000BFF2
:100DC00001B5FFF7B7FF002848BF10F1000F01BDC4
:100DD0004DF808EDFFF7F4FF0CBF012000205DF88F
:100DE00008FB00BF4DF808EDFFF7EAFF34BF012014
:100DF00000205DF808FB00BF4DF808EDFFF7E0FFAD
:100E000094BF012000205DF808FB00BF4DF808EDFD
:100E1000FFF7CEFF94BF012000205DF808FB00BF64
:100E20004DF808EDFFF7C4FF34BF012000205DF846
:100E300008FB00BF4FEA410C7FEA6C5C02D150EA2C
:100E4000013C0AD14FEA430C7FEA6C5C02D152EAC2
:100E5000033C02D14FF0000070474FF00100704793
:100E60004FEA410212F5001215D211D56FF47873D2
:100E7000B3EB625212D94FEAC12343F0004343EA75
:100E8000505311F0004F23FA02F018BF4042704750
:100E90004FF00000704750EA013005D111F00040DA
:100EA00008BF6FF0004070474FF00000704700BF70
:100EB00000B583B00E4B9A6C42F001029A649B6CB1
:100EC00003F001030193019B00221146102000F062
:100ED00001FE102000F032FE00221146112000F029
:100EE000F9FD112000F02AFE03B05DF804FB00BFFD
:100EF000001002402DE9F0418AB0002405940694C8
:100F00000794089409943B4BDA6C42F00402DA64CB
:100F1000DA6C02F004020092009ADA6C42F00102EC
:100F2000DA64DA6C02F001020192019ADA6C42F0A2
:100F30000202DA64DA6C02F002020292029ADA6CBD
:100F400042F01002DA64DA6C02F010020392039AA3
:100F5000DA6C42F00802DA64DB6C03F008030493F5
:100F6000049BDFF8A08001221146404601F048F8BA
:100F7000214F22460421384601F042F81F4E2246F6
:100F80004FF48071304601F03BF8012211463046A3
:100F900001F036F80125059506950794089405A9F2
:100FA000404600F049FF0595154B0693079505A9A6
:100FB0004FF0904000F040FF0423059306950794FE
:100FC000089405A9384600F037FF40F20113059355
:100FD00006950794089405A9304600F02DFF224697
:100FE0002146062000F076FD062000F0A7FD0AB09D
:100FF000BDE8F081001002400004004800100048E5
:1010000000001110000800482DE9F04182B0174699
:10101000984602AC04F8011D0E4D0022012128461D
:1010200000F0EEFF0C4E4FF47A7301222146304659
:1010300002F020FA4FF47A7342463946304602F005
:1010400019FA01221146284600F0DAFF002002B00A
:10105000BDE8F08100100048D40400202DE9F041E3
:1010600082B006461746984602AC04F8011D0E4DA4
:1010700000220121284600F0C3FF4FF47A730122B9
:101080002146304602F0F6F94FF47A73424639466B
:10109000304602F0EFF901221146284600F0B0FF79
:1010A000002002B0BDE8F081000800482DE9F041C1
:1010B00082B006461746984661F07F0102AC04F8FC
:1010C000011D0E4D00220121284600F099FF4FF42A
:1010D0007A7301222146304602F0CCF94FF47A733C
:1010E00042463946304602F01FFC0122114628468E
:1010F00000F086FF002002B0BDE8F081001000483B
:101100002DE9F04182B006461746984661F07F010E
:1011100002AC04F8011D0E4D00220121284600F00A
:101120006FFF4FF47A7301222146304602F0A2F994
:101130004FF47A7342463946304602F0F5FB0122FD
:101140001146284600F05CFF002002B0BDE8F081A7
:101150000008004838B504460D4600F03FFA2A461C
:101160002146024802F060FD38BD00BF04040020A3
:1011700058B110B50A46054C0549204603F0A6FEB5
:1011800081B22046FFF7E6FF10BD704784020020C1
:10119000F066000830B583B04FF4FA6000F074FCDC
:1011A0002A482B4B03602B4B43602B4B83602B4C0B
:1011B0002B4A22602B4A6260A3602B4900230B70EC
:1011C00000F0D3F902AB43F8040D28491846FFF7A5
:1011D000CFFF0121204600F0D6F9254C21461F48BB
:1011E00000F0EDF92378002BF7D1184D01212846A6
:1011F00000F080F902AC44F8040D1E492046FFF7C8
:10120000B7FF0221284600F03DF901901A49204617
:10121000FFF7AEFF0021284600F050F90190174972
:101220002046FFF7A5FF01210C4800F00FF90190BF
:1012300013492046FFF79CFF12492046FFF798FF0D
:10124000C82000F021FC03B030BD00BF880400209E
:1012500009100008AD100008D4040020640200202A
:101260005D100008011100085802002008670008FE
:10127000F80300202467000830670008446700086E
:1012800058670008706700082DE9F04184B040F20B
:101290004C43984222D040F24D4398423FD040F216
:1012A0004E4398424DD040F24F4398425BD0374D69
:1012B000374C0FCC28606960AA60EB6003CC2861D2
:1012C000696123782B762846FFF7BEFA81B228465B
:1012D000FFF740FF002004B0BDE8F0814D68D1F871
:1012E00008800868FFF7D8F806460F46274C4046A6
:1012F000FFF7D2F8CDE902012846FFF7CDF8CDE996
:10130000000132463B462349204603F0DFFD2046DC
:10131000FFF79AFA81B22046FFF71CFFDAE7086868
:10132000FFF7BAF8194C02460B461B49204603F05A
:10133000CDFD2046FFF788FA81B22046FFF70AFF6D
:10134000C8E74868FFF7A8F8104C02460B46124958
:10135000204603F0BBFD2046FFF776FA81B2204617
:10136000FFF7F8FEB6E78868FFF796F8074C0246E5
:101370000B460949204603F0A9FD2046FFF764FA11
:1013800081B22046FFF7E6FEA4E700BF84020020FA
:10139000AC67000894670008E867000830B583B0C0
:1013A00001A9194800F0E8F89DF8043013F0080F7F
:1013B00002D1002003B030BD144C00232360A38071
:1013C0002146114800F0B2F8B4F9000000F02CF802
:1013D00030EE000A0E4D85ED000AB4F9020000F06F
:1013E00023F830EE000A85ED010AB4F9040000F09C
:1013F0001BF830EE000A85ED020A294640F24C4007
:10140000FFF742FFD5E700BF88040020FC0300205F
:101410009404002010B544688068A04710BD10B542
:1014200004688068A04710BD07EE900AF8EEE77ADE
:101430009FED040A67EE807A9FED030A27EE800A8B
:10144000704700BF0000803D48E17A3F30B583B06F
:1014500004460D46012301AA2021FFF7DBFF0346C6
:1014600010B1184603B030BD9DF8043065F3C713C2
:1014700002AA02F8043D012320212046FFF7CFFFF6
:101480000346EEE730B583B004460D46012301AABA
:101490002021FFF7BFFF034610B1184603B030BD4F
:1014A0009DF8043065F3061302AA02F8043D0123F7
:1014B00020212046FFF7B3FF0346EEE730B583B0A7
:1014C00004460D46012301AA2321FFF7A3FF03468B
:1014D00010B1184603B030BD9DF8043065F3051314
:1014E00002AA02F8043D012323212046FFF797FFBB
:1014F0000346EEE730B583B004460D46012301AA4A
:101500002021FFF787FF034610B1184603B030BD16
:101510009DF8043065F3C30302AA02F8043D0123D9
:1015200020212046FFF77BFF0346EEE710B582B08F
:101530000C4606236A462821FFF76CFF9DF8012020
:101540009DF8003003EB022323809DF803209DF8D3
:10155000023003EB022363809DF805209DF80430E0
:1015600003EB0223A38002B010BD08B501230A4695
:101570000F21FFF74FFF08BD08B501230A462721B9
:10158000FFF748FF08BD30B583B004460D46012380
:1015900001AA2121FFF73EFF034610B1184603B010
:1015A00030BD9DF8043065F3820302AA02F8043DC1
:1015B000012321212046FFF732FF0346EEE710B555
:1015C00082B00C46012301AA2121FFF723FF9DF8D9
:1015D0000430C3F38003237002B010BD08B5064B7E
:1015E0001B78002BFBD00022034B1A700421034808
:1015F00000F006FD08BD00BF0C02002000040048FA
:1016000008B50122034B1A700421034800F0F8FCCE
:1016100008BD00BF0C0200200004004872B6FEE7BF
:1016200000B5B9B02422002128A802F0EBFF002168
:10163000229123912491259126918822684602F0D7
:10164000E1FF1023279301222D9260232F93022381
:101650003193329233922822349207223592369374
:10166000379327A800F0D2FDE0B90F23229303237C
:1016700023930023249325932693042122A801F089
:10168000E1F888B90223009300230F93684601F024
:101690000DFB58B94FF4007000F0CEFC40B939B0E2
:1016A0005DF804FBFFF7BAFFFFF7B8FFFFF7B6FFDF
:1016B000FFF7B4FF08B500F0C5F9FFF7B1FFFFF77A
:1016C00019FCFFF7F5FB00F019F800F007F9084BDB
:1016D00001221A7032220749074802F0F7FAFFF791
:1016E00059FD1E2000F0D0F9FFF758FEF9E700BFC2
:1016F0000C020020A00400200404002008B51148BA
:10170000114B03604FF4827343604FF400438360D6
:101710004FF4E063C3600023036143614FF4007240
:101720008261C3610362436283620722C262036310
:101730000823436301F02FFE00B908BDFFF76EFFD9
:10174000FBE700BFD40400200038004000B589B09A
:101750000023039304930593069307930268174BA2
:101760009A4202D009B05DF804FB03F5EC339A6DA0
:1017700042F480429A659A6D02F480420192019A85
:10178000DA6C42F00802DA64DB6C03F008030293BF
:10179000029B12230393022304930323069305233E
:1017A000079303A9064800F047FB002211462420B6
:1017B00000F090F9242000F0C1F9D3E70038004090
:1017C000000C004882B00A4B1A6E42F001021A6601
:1017D0001A6E02F001020092009A9A6D42F0805255
:1017E0009A659B6D03F080530193019B02B0704793
:1017F00000100240FEE7FEE7FEE7FEE7FEE7704767
:101800007047704708B500F02DF908BD08B50120F4
:1018100000F0FCFB08BD000008B5024800F0A9FA82
:1018200008BD00BF1002002008B5024800F0A1FA70
:1018300008BD00BFB003002008B5024802F044F91B
:1018400008BD00BFD404002008B5024802F010FB18
:1018500008BD00BF0404002008B503460B4A126807
:1018600042B10A4A106803446A46934206D8074ABE
:10187000136008BD054A06491160F2E702F098FEC0
:101880000C2303604FF0FF30F3E700BFFC010020A2
:10189000400500200F49D1F8883043F47003C1F8A7
:1018A00088300D4B1A6842F001021A6000209860DF
:1018B0001A6822F0A85222F410221A604FF48052C3
:1018C000DA601A6822F480221A6098614FF000638F
:1018D0008B60704700ED00E00010024008B50B4837
:1018E0000B4B03604FF4E133436000238360C3601C
:1018F00003610C2242618361C3610362436202F0AF
:10190000FAFD00B908BDFFF789FEFBE704040020DB
:101910000044004030B589B000230393049305933D
:101920000693079302682E4B9A4201D009B030BD4E
:10193000044603F5E6339A6D42F400329A659A6DD7
:1019400002F400320192019ADA6C42F00802DA6481
:10195000DB6C03F008030293029B602303930225D0
:101960000495032306930723079303A91D4800F05A
:1019700063FA1D481D4B0360456000238360C3600C
:101980008022026143618361C361036200F012F946
:1019900000BB154BE3669C621548164B036002239F
:1019A0004360102383600023C3608022026143618F
:1019B0008361C361036200F0FDF870B90C4BA3664C
:1019C0009C6200221146262000F084F8262000F0B8
:1019D000B5F8ABE7FFF722FEDBE7FFF71FFEEDE709
:1019E00000440040000C0048100200206C0002403F
:1019F000B003002080000240104B1B780BB901207F
:101A0000704710B504464FF47A70B0FBF3F30C4AFC
:101A10001068B0FBF3F000F09FF868B90F2C01D903
:101A200001200AE0002221464FF0FF3000F052F87A
:101A3000024B5C60002000E0012010BD040000208B
:101A40000000002010B5032000F032F80020FFF75E
:101A5000D3FF10B10124204610BD0446FFF7B2FEAB
:101A6000F9E70000034B1B78034A11680B4413602D
:101A7000704700BF0400002038050020014B1868A3
:101A8000704700BF3805002038B50446FFF7F6FF61
:101A90000546B4F1FF3F02D0044B1B781C44FFF70E
:101AA000EDFF401BA042FAD338BD00BF0400002068
:101AB000074AD36823F4E0631B041B0C000200F404
:101AC000E060184340F0BF6040F40030D0607047E1
:101AD00000ED00E030B4174BDB68C3F30223C3F121
:101AE0000704042C28BF04241D1D062D18D9033B10
:101AF0004FF0FF3505FA04F421EA0401994005FA94
:101B000003F322EA0303194300280BDB0901C9B2DE
:101B100000F1604000F5614080F8001330BC704770
:101B20000023E5E700F00F000901C9B2024B195488
:101B3000F4E700BF00ED00E014ED00E0002807DB53
:101B400000F01F02400901239340024A42F820306E
:101B5000704700BF00E100E00138B0F1807F0AD299
:101B6000064B5860064AF02182F823100020986046
:101B700007221A6070470120704700BF10E000E0A4
:101B800000ED00E070B4446C04F01C05066C012408
:101B9000AC407460046863608368102B05D00368F0
:101BA00099600368DA6070BC704703689A600368E4
:101BB000D960F8E7002869D010B403460168344AB8
:101BC000914245D8334A0A443349A1FB0212120913
:101BD00092004264314A0264022283F82520186888
:101BE000016821F4FF4121F070019A68DC6822430A
:101BF0001C6922435C6922439C692243DC692243BD
:101C00001C6A22430A4302609A68B2F5804F15D0DD
:101C1000196C224A914226D0214A1168586C00F072
:101C20001C040F20A04021EA0001116011685868CF
:101C30005C6C04F01C04A040014311600020D863D8
:101C4000012283F8252083F824005DF8044B7047B7
:101C5000144A0A441049A1FB02121209920042647C
:101C6000114A0264B8E7A8321168586C00F01C04ED
:101C70000F20A04021EA00011160116858685C6CD7
:101C800004F01C04A04001431160D7E70120704715
:101C900007040240F8FFFDBFCDCCCCCC00000240D1
:101CA000A8040240F8FBFDBF0004024038B590F8DC
:101CB0002440012C33D0012480F8244090F82540A2
:101CC000E4B2012C04D0002380F82430022038BD77
:101CD0000446022084F825000020E0632568286877
:101CE00020F0010028602046FFF74CFF236B5BB11A
:101CF0002268136843F00E0313602268136843F0F0
:101D0000010313600020E2E72268136823F0040354
:101D100013602268136843F00A031360EDE70220A2
:101D2000D5E708B590F82530DBB2022B03D00423A9
:101D3000C363012008BD0268136823F00E0313601B
:101D40000268136823F001031360436C03F01C0363
:101D5000016C012202FA03F34B6080F82520002376
:101D600080F82430836B13B198470020E2E700200D
:101D7000E0E738B5036C196804682568436C03F024
:101D80001C0304229A400A4215D015F0040F12D009
:101D9000236813F0200F03D1236823F0040323608A
:101DA000436C03F01C02016C042393404B60036BF3
:101DB00003B1984738BD02229A400A421CD015F060
:101DC000020F19D0236813F0200F06D1236823F0E7
:101DD0000A032360012380F82530436C03F01C02C2
:101DE000016C022393404B60002380F82430C36AC7
:101DF000002BDFD09847DDE7082202FA03F30B42FD
:101E0000D8D015F0080FD5D0236823F00E03236037
:101E1000436C03F01C03016C012202FA03F34B60D4
:101E2000C26380F82520002380F82430436B002B08
:101E3000C0D09847BEE70000F0B583B000233FE074
:101E4000C66A26EA0406C5F3C0049C403443C46253
:101E50005FE0062400E00024B4403C430235644EB9
:101E600046F82540634C2568D44304EA05064F68CC
:101E700017F4803F01D042EA05065E4D2E606D6882
:101E800004EA05064F6817F4003F01D042EA050650
:101E9000584D6E60AD6804EA05064F6817F4801F60
:101EA00001D042EA0506534DAE60ED682C404E6805
:101EB00016F4001F01D042EA05044E4AD4600133F3
:101EC0000A6832FA03F400F0918001249C40224019
:101ED000F5D04D686E1E012E03D9112D01D0122DA3
:101EE00012D186685F000325BD4026EA0506CD684D
:101EF000BD4035438560466826EA04064D68C5F353
:101F000000159D40354345604D6805F00306032EDE
:101F100096D0C5685F000324BC40E44325408E682A
:101F2000BE402E43C6604D68022D01D0122D13D144
:101F3000DE08083650F826E003F007054FEA850C66
:101F40000F2505FA0CF52EEA050E0D6905FA0CF5BC
:101F500045EA0E0540F8265005682C404D6805F00E
:101F60000305BD402C4304604C6814F0805FA6D08C
:101F7000214C256E45F001052566246E04F0010410
:101F80000194019C9D08AE1C194C54F8267003F076
:101F90000304A6000F24B44027EA0407B0F1904FD1
:101FA0003FF459AF154CA04216D004F58064A0420E
:101FB00014D004F58064A04212D004F58064A042DD
:101FC00010D004F58064A0420ED004F58064A042D5
:101FD0003FF43FAF07243FE701243DE702243BE7FE
:101FE000032439E7042437E7052435E703B0F0BDBF
:101FF00000000140000401400010024000040048BD
:102000000AB98162704781617047704708B5054B16
:102010005B69034200D108BD024B5861FFF7F5FF31
:10202000F9E700BF00040140024B186800F4C060EB
:10203000704700BF00700040B0F5007F0FD01F4B0D
:102040001B6803F4C063B3F5806F34D01B4A136878
:1020500023F4C06343F48063136000207047174B80
:102060001B6803F4C063B3F5007F22D0134A1368E2
:1020700023F4C06343F400731360114B1A683223D6
:1020800003FB02F30F4AA2FB03239B0C013300E086
:10209000013B0A4A526912F4806F01D0002BF7D13C
:1020A000064B5B6913F4806F01D100207047032059
:1020B0007047002070470020704700BF007000404C
:1020C0000000002083DE1B4330B583B00546204B63
:1020D0009B6D13F0805F0BD0FFF7A6FFB0F5007F7C
:1020E00017D0802D1FD82DD0702D2DD000211BE0B2
:1020F000174CA36D43F08053A365A36D03F0805389
:102100000193019BFFF790FFA36D23F08053A3651C
:10211000E4E7802D03D9A02D03D9022104E000219A
:1021200002E0012100E003210A4A136823F00703BB
:102130000B431360136803F007038B4206D00120A2
:1021400003B030BD0221EFE70121EDE70020F7E702
:102150000010024000200240284A9368D26802F032
:10216000030213F00C030AD00C2B06D0042B1FD053
:10217000082B20D00020024610E0012AF6D11F4A89
:10218000126812F0080F0CD11C4AD2F89420C2F346
:1021900003221B4951F8222043B100200C2B0DD003
:1021A0007047164A1268C2F30312F2E71046F5E7C9
:1021B00014480022F2E714480022EFE70F4BDB68D7
:1021C00003F00303022B15D0032B15D00B4BD8685B
:1021D000C0F302100130D968C1F3062102FB01F2FD
:1021E000B2FBF0F2D868C0F3416001304000B2FBAE
:1021F000F0F0D5E7034AE9E7034AE7E700100240B9
:10220000A86600080024F40000127A00002800F0FC
:102210000083F0B583B00446AF4B9D6805F00C0514
:10222000DE6806F00306036813F0100F5BD0E5B11B
:102230000C2D18D0A369002B00F0BC80A64A1368AF
:1022400043F001031360FFF719FC0746A24B1B681C
:1022500013F0020F40F09B80FFF710FCC01B022818
:10226000F4D90323E1E2012EE4D19B4B1B6813F068
:10227000020F03D0A369002B00F0CE82206A964B98
:102280001B6813F0080F5CD0934B1B6803F0F0033E
:1022900098425DD8904B1A6842F008021A601A689A
:1022A00022F0F002216A0A431A605A6822F47F423F
:1022B000E16942EA01225A60002D61D0FFF74CFF2C
:1022C000854B9B68C3F30313844AD35C03F01F035D
:1022D000D840834B1860834B1868FFF78DFB03468B
:1022E000002840F0A282236813F0010F00F08180E3
:1022F000082D75D00C2D71D06368B3F5803F00F0C8
:102300009780B3F5A02F00F09980734B1A6822F4E0
:1023100080321A601A6822F480221A606368002BE7
:1023200000F09980FFF7AAFB07466B4B1B6813F47C
:10233000003F5ED1FFF7A2FBC01B6428F5D9032341
:1023400073E2654BD3F894301B0903F0F0039FE769
:10235000FFF7BAFE002840F061825F4B1A6842F036
:1023600008021A601A6822F0F002216A0A431A6011
:102370005A6822F47F42E16942EA01225A609DE7ED
:10238000206AFFF7A1FE002898D001234DE2524BAE
:102390001A6842F008021A601A6822F0F002216AF4
:1023A0000A431A605A6822F47F42E16942EA012234
:1023B0005A6098E7484A136823F001031360FFF757
:1023C0005DFB0746444B1B6813F0020F8BD0FFF7F1
:1023D00055FBC01B0228F5D9032326E2032E8BD11F
:1023E0003D4B1B6813F4003F03D06368002B00F0E3
:1023F0001782236813F0020F4FD0042D3CD00C2D10
:1024000038D0E368002B78D0334A136843F48073E4
:102410001360FFF733FB06462F4B1B6813F4806FE6
:1024200062D1FFF72BFB801B0228F5D90323FCE1C7
:10243000294A136843F4803313606FE703F1804344
:10244000A3F53C331A6842F480221A601A6842F4F9
:1024500080321A6062E7FFF711FB07461E4B1B68CC
:1024600013F4003FC5D0FFF709FBC01B6428F5D962
:102470000323DAE1022EC4D1174B1B6813F4806FDB
:1024800003D0E368002B00F0CD81134A536823F09A
:10249000F853216943EA01635360236813F0080F7E
:1024A00056D06369002B3CD00B4AD2F8943043F0ED
:1024B0000103C2F89430FFF7E1FA0646064BD3F861
:1024C000943013F0020F43D1FFF7D8FA801B022893
:1024D000F4D90323A9E100BF00100240D866000828
:1024E0000000002008000020B84A536823F0F85389
:1024F000216943EA01635360CFE7B44A136823F4C8
:1025000080731360FFF7BAFA0646B04B1B6813F4EA
:10251000806FC2D0FFF7B2FA801B0228F5D90323DF
:1025200083E1AA4AD2F8943023F00103C2F8943030
:10253000FFF7A4FA0646A54BD3F8943013F0020F28
:1025400006D0FFF79BFA801B0228F4D903236CE125
:10255000236813F0040F7AD09C4B9B6D13F0805FBF
:102560000BD19A4B9A6D42F080529A659B6D03F0A5
:1025700080530193019B012600E00026944B1B68C9
:1025800013F4807F26D0A368012B37D0052B3DD0D4
:102590008E4BD3F8902022F00102C3F89020D3F89C
:1025A000902022F00402C3F89020A368002B3BD0B7
:1025B000FFF764FA0746854BD3F8903013F0020F0B
:1025C00044D1FFF75BFAC01B41F288339842F2D93D
:1025D00003232AE17E4A136843F480731360FFF7F4
:1025E0004DFA07467A4B1B6813F4807FCBD1FFF777
:1025F00045FAC01B0228F5D9032316E1734AD2F825
:10260000903043F00103C2F89030CEE76F4BD3F81F
:10261000902042F00402C3F89020D3F8902042F0BA
:102620000102C3F89020C0E7FFF728FA0746674B7E
:10263000D3F8903013F0020F08D0FFF71FFAC01B39
:1026400041F288339842F2D90323EEE06EBBA36ACD
:10265000002B00F0E980022B2DD00C2D00F0EE8035
:102660005A4B1A6822F080721A601B6813F0205FC0
:1026700004D1564AD36823F00303D360534AD36886
:1026800023F0887323F48033D360FFF7F7F904460F
:102690004E4B1B6813F0007F00F0B980FFF7EEF996
:1026A000001B0228F4D90323BFE0484A936D23F0AE
:1026B00080539365CBE7454BDB6803F00301E26A87
:1026C00091420FD00C2D00F0B380404B1B6813F0EB
:1026D000806F40F0AF803D4B1B6813F0805F2DD0C2
:1026E0000123A2E003F07002216B0139B2EB011F5C
:1026F000E8D103F4FE42616BB2EB012FE2D103F4A7
:102700000031A26B073A18BF01229142DAD103F4DB
:10271000C001E26B5208013AB1EB425FD2D103F043
:10272000C063226C5208013AB3EB426FCAD1274B07
:102730001B6813F0007F51D0002376E0234A136812
:1027400023F080731360FFF799F905461F4B1B6850
:1027500013F0007F06D0FFF791F9401B0228F5D94E
:10276000032362E0194AD3681A491940E36A206BCF
:10277000013843EA0013606B43EA0023E06B400832
:10278000013843EA4053206C4008013843EA406373
:10279000A06B000943EA40430B43D360136843F046
:1027A00080731360D36843F08073D360FFF766F9DA
:1027B0000446064B1B6813F0007F0DD1FFF75EF94E
:1027C000001B0228F5D903232FE000BF00100240B0
:1027D000007000408C809DF9002326E0184B1A6899
:1027E00042F080721A60DA6842F08072DA60FFF7B5
:1027F00045F9044604E0FFF741F9001B02281BD805
:102800000F4B1B6813F0007FF5D000230DE0002371
:102810000BE0012318467047012306E0012304E082
:10282000012302E0012300E00023184603B0F0BDBD
:102830000123FAE70123F8E70323F6E70123F4E78E
:1028400000100240002800F09B8070B504464E4BFB
:102850001B6803F007038B420CD24B4A136823F02A
:1028600007030B431360136803F007038B4201D087
:10287000012070BD0D46236813F0010F39D0636845
:10288000032B09D0022B26D063BB404A126812F0FA
:10289000020F06D10120ECE73C4A126812F0007FDB
:1028A00070D03A498A6822F0030213438B60FFF725
:1028B000E5F80646354B9B6803F00C036268B3EB02
:1028C000820F16D0FFF7DAF8801B41F28833984266
:1028D000F0D90320CDE72D4A126812F4003FE0D171
:1028E0000120C6E7294A126812F4806FD9D101206D
:1028F000BFE7236813F0020F06D0244A936823F041
:10290000F003A1680B4393601F4B1B6803F00703A0
:10291000AB420CD91C4A136823F007032B43136006
:10292000136803F00703AB4201D00120A1E723683D
:1029300013F0040F06D0154A936823F4E063E168AE
:102940000B439360236813F0080F07D00F4A936876
:1029500023F46053216943EAC1039360FFF7FCFB52
:102960000A4B9B68C3F30313094AD35C03F01F03AC
:10297000D840084B1860084B1868FFF73DF878E717
:1029800001207047012074E700200240001002403F
:10299000D86600080000002008000020014B1868DD
:1029A000704700BF0000002008B5FFF7F7FF054B98
:1029B0009B68C3F30223044AD35C03F01F03D8408F
:1029C00008BD00BF00100240E866000808B5FFF728
:1029D000E5FF054B9B68C3F3C223044AD35C03F0B5
:1029E0001F03D84008BD00BF00100240E866000881
:1029F000F8B55A4BDB6813F0030F18D0574BDB6860
:102A000003F003030268934202D001252846F8BD73
:102A1000002A00F0A080514BDB68C3F3021301339E
:102A20004268934201D00125F0E700251AE00368CF
:102A3000022B59D0032B5ED0012B01D001250FE0D2
:102A4000464A126812F0020F61D0444DEA6822F043
:102A500073024468013C43EA04131343EB6000250E
:102A6000002DD3D10F4604463C4A136823F08063FF
:102A70001360FFF703F80646384B1B6813F0006F2E
:102A800005D0FEF7FBFF801B0228F5D90325002D9A
:102A9000BCD1002F3DD131490B6923F41F3323F4FE
:102AA0004073A068E2681209520442EA002213430C
:102AB0000B612A4A136843F080631360FEF7DEFF60
:102AC0000646264B1B6813F0006F05D1FEF7D6FFB4
:102AD000801B0228F5D90325002D97D11F4A1369C1
:102AE000A1690B43136191E71C4A126812F4806FCD
:102AF000ABD10125B4E7194A126812F4003FA4D102
:102B0000164A126812F4802F9FD10125A8E70125EB
:102B1000A6E7012F0FD01148026922F0C06222F40B
:102B2000FE42A16863695B08013B5B0643EA01233F
:102B300013430361BDE70948026922F4C00222F48D
:102B4000FE42A16823695B08013B5B0543EA012360
:102B500013430361ADE7012558E700BF00100240B1
:102B6000F8B5514BDB6813F0030F18D04E4BDB6800
:102B700003F003030268934202D001252846F8BD02
:102B8000002A00F08E80484BDB68C3F30213013348
:102B90004268934201D00125F0E700251AE003685E
:102BA000022B59D0032B5ED0012B01D001250FE061
:102BB0003D4A126812F0020F61D03B4DEA6822F0E4
:102BC00073024468013C43EA04131343EB6000259D
:102BD000002DD3D10F460446334A136823F08053A7
:102BE0001360FEF74BFF06462F4B1B6813F0005F88
:102BF00005D0FEF743FF801B0228F5D90325002DE1
:102C0000BCD1002F3DD128494B6923F41F3323F455
:102C10004073A068E2681209520442EA002213439A
:102C20004B61214A136843F080531360FEF726FF7F
:102C300006461D4B1B6813F0005F05D1FEF71EFF13
:102C4000801B0228F5D90325002D97D1164A536918
:102C500061690B43536191E7134A126812F4806F64
:102C6000ABD10125B4E7104A126812F4003FA4D199
:102C70000D4A126812F4802F9FD10125A8E7012583
:102C8000A6E70948426922F0C06222F4FE42A16828
:102C900023695B08013B5B0643EA0123134343615D
:102CA000BFE701256AE700BF001002402DE9F041AF
:102CB00082B00446036813F4006F2FD0436EB3F55F
:102CC000800F25D008D9B3F5000F10D0B3F5400F11
:102CD00040F09980002610E0002B40F09480002105
:102CE0000430FFF785FE06463EB1374618E05E4ADF
:102CF000D36843F48033D36000265B4AD2F888302F
:102D000023F44003616E0B43C2F88830002707E0CC
:102D100000212030FFF724FF0646E5E700273E4666
:102D2000236813F4805F15D0A36EB3F1807F7AD04F
:102D30006CD9B3F1007F70D0B3F1407F7AD1002E0F
:102D40007BD1494AD2F8883023F04073A16E0B43FF
:102D5000C2F88830236813F4003F00F08E80424BA5
:102D60009B6D13F0805F6AD13F4B9A6D42F08052A9
:102D70009A659B6D03F080530193019B4FF001080E
:102D80003A4A136843F480731360FEF777FE0546F2
:102D9000364B1B6813F4807F05D1FEF76FFE401B96
:102DA0000228F5D90326002E62D12F4BD3F890309C
:102DB00013F4407316D0D4F884209A4212D02A4AD1
:102DC000D2F8903023F44073D2F8901041F480315F
:102DD000C2F89010D2F8901021F48031C2F890100F
:102DE000C2F8903013F0010F2CD1002E40F0438137
:102DF0001D4AD2F8903023F44073D4F884100B436A
:102E0000C2F8903035E001273E4689E793B90021AA
:102E1000201DFFF7EDFD064691E7134AD36843F402
:102E20008033D3608BE7002104F12000FFF798FE88
:102E3000064684E701273E468CE737468AE74FF08F
:102E400000089DE7FEF71AFE0546074BD3F89030C1
:102E500013F0020FC9D1FEF711FE401B41F2883377
:102E60009842F2D90326C0E70010024000700040EB
:102E70003746B8F1000F40F00081236813F0010FCE
:102E800008D09D4AD2F8883023F00303A16B0B438E
:102E9000C2F88830236813F0020F08D0964AD2F89F
:102EA000883023F00C03E16B0B43C2F888302368B1
:102EB00013F0040F08D0904AD2F8883023F0300382
:102EC000216C0B43C2F88830236813F0080F08D038
:102ED000894AD2F8883023F0C003616C0B43C2F8F2
:102EE0008830236813F0100F08D0834AD2F8883056
:102EF00023F44073A16C0B43C2F88830236813F0AD
:102F0000200F08D07C4AD2F8883023F44063E16C6B
:102F10000B43C2F88830236813F4007F08D0764A48
:102F2000D2F8883023F44023E16D0B43C2F8883097
:102F3000236813F4806F08D06F4AD2F8883023F4E6
:102F40004013216E0B43C2F88830236813F0400F02
:102F500008D0694AD2F8883023F44053216D0B43DE
:102F6000C2F88830236813F0800F08D0624AD2F884
:102F7000883023F44043616D0B43C2F888302368E6
:102F800013F4807F08D05C4AD2F8883023F44033B1
:102F9000A16D0B43C2F88830236813F4005F0FD093
:102FA000554AD2F8883023F04063E16E0B43C2F8F3
:102FB0008830E36EB3F1006F65D0B3F1806F67D0F6
:102FC000236813F4002F0FD04B4AD2F8883023F037
:102FD0004063216F0B43C2F88830236FB3F1006F59
:102FE0005ED0B3F1806F60D0236813F4802F0FD0D0
:102FF000414AD2F8883023F04063616F0B43C2F836
:103000008830636FB3F1006F57D0B3F1806F59D040
:10301000236813F4804F0FD0374AD2F8883023F05A
:103020004053A16F0B43C2F88830A36FB3F1805FA8
:1030300050D0B3F1005F55D0236813F4004F08D08F
:103040002D4AD2F8883023F08043E16F0B43C2F859
:103050008830236813F4803F09D0274AD2F888309B
:1030600023F00043D4F880100B43C2F88830384670
:1030700002B0BDE8F0813746FBE61F4A936D23F0AE
:1030800080539365F9E6D36843F48013D36097E7E0
:103090000121201DFFF7ACFC002891D007468FE7E7
:1030A000D36843F48013D3609EE70121201DFFF70E
:1030B0009FFC002898D0074696E7D36843F4801316
:1030C000D360A5E70121201DFFF792FC00289FD0C7
:1030D00007469DE70221201DFFF78AFC0028ABD0A0
:1030E0000746A9E7022104F12000FFF739FD002877
:1030F000A2D00746A0E700BF001002402DE9F04330
:1031000083B004460F4616461D46FEF7B7FC0A9BE1
:10311000181A00EB0508FEF7B1FC81462A4B1B6824
:10312000C3F3CB3308FB03F3019323689B6837EAAF
:1031300003030CBF01230023B34240D0B5F1FF3F8E
:10314000F3D0FEF79BFCA0EB090040450AD2B8F192
:10315000000F07D0019B0BB94FF00008019B013B0A
:103160000193E2E72268536823F0E0035360636849
:10317000B3F5827F0BD0A36AB3F5005F14D00123AF
:1031800084F85D30002384F85C30032018E0A368E5
:10319000B3F5004F02D0B3F5806FECD1226813680D
:1031A00023F040031360E6E72268136823F400531A
:1031B00013602268136843F400531360DFE70020B4
:1031C00003B0BDE8F08300BF000000202DE9F0430C
:1031D00083B006460C4615461F46FEF74FFC0A9B79
:1031E000181A00EB0708FEF749FC81462D4B1B68B7
:1031F00003EB8303C3EBC3031B0D08FB03F3019332
:1032000002E0B7F1FF3F0BD1326893682340AB4235
:1032100044D0B4F5C06FF4D1002DF2D1137BF0E7A8
:10322000FEF72CFCA0EB090040450AD2B8F1000FD4
:1032300007D0019B0BB94FF00008019B013B0193A4
:10324000E2E73268536823F0E00353607368B3F534
:10325000827F0BD0B36AB3F5005F14D0012386F8E8
:103260005D30002386F85C30032018E0B368B3F5C6
:10327000004F02D0B3F5806FECD13268136823F0B1
:1032800040031360E6E73268136823F400531360C9
:103290003268136843F400531360DFE7002003B083
:1032A000BDE8F0830000002070B582B004460D46F2
:1032B000164600920B4600224FF4C051FFF786FFDE
:1032C000B8B900962B46002280212046FFF716FF52
:1032D000B8B900962B4600224FF4C0612046FFF794
:1032E00075FF034650B1236E43F02003236603238A
:1032F00004E0236E43F0200323660323184602B044
:1033000070BD236E43F0200323660323F6E770B5F8
:1033100082B004460D4616464368B3F5827F0FD04F
:1033200000962B46002280212046FFF7E7FE034649
:1033300098B96268B2F5827F15D0184602B070BDA8
:103340008368B3F5004F02D0B3F5806FE8D12268EF
:10335000136823F040031360E2E7236E43F0200379
:1033600023660323E9E7A268B2F5004F02D0B2F565
:10337000806FE2D100962B4600224FF4C0612046B8
:10338000FFF724FF03460028D7D0236E43F0200325
:1033900023660323D1E700286AD010B50446436AA8
:1033A00033B94368B3F5827F05D00023C36102E0DF
:1033B0000023036143610023A36294F85D30002B76
:1033C0004DD0022384F85D302268136823F0400357
:1033D0001360E368B3F5E06F47D90022B3F5706F6F
:1033E00004D0B3F5E06F01D00023A362636803F457
:1033F0008273A16801F404410B43216901F00201C9
:103400000B43616901F001010B43A16901F40071F3
:103410000B43E16901F038010B43216A01F080019F
:103420000B43A16A01F4005120680B430360638BD6
:1034300003F00403616A01F010010B43616B01F0BA
:1034400008010B43E16801F470610B4321681343E9
:103450004B6000202066012384F85D3010BD84F8A5
:103460005C302046FEF772F9ABE74FF48052B5E7C7
:10347000012070472DE9F04182B090F85C40012CAA
:1034800000F0E9801E46154688460446012380F870
:103490005C30FEF7F3FA074694F85D20D2B2012AB9
:1034A00009D00220012384F85D30002384F85C30C9
:1034B00002B0BDE8F081B8F1000F00F0BE80002D31
:1034C00000F0BD80032384F85D3000232366C4F838
:1034D0003880A587E5872364A4F84430A4F84630F3
:1034E0002365E364A368B3F5004F1CD023681A6812
:1034F00012F0400F03D11A6842F040021A60E368EC
:10350000B3F5E06F38D963680BB1012D20D1A26B00
:1035100023681288DA60A36B0233A363E38F013B55
:103520009BB2E38714E02268136823F04003136022
:103530002268136843F480431360D7E7FEF79EFACE
:10354000C01BB04202D3B6F1FF3F7AD1002E7AD031
:10355000E38F9BB2002B5BD023689A6812F0020FB6
:10356000ECD0A26B1288DA60A36B0233A363E38F03
:10357000013B9BB2E387EBE763680BB1012D30D1D0
:10358000E38F9BB2012B0BD9A26B23681288DA6000
:10359000A36B0233A363E38F023B9BB2E38720E07C
:1035A000A26B236812781A73A36B0133A363E38FB2
:1035B000013B9BB2E38714E0A36B1B781373A36BEF
:1035C0000133A363E38F013B9BB2E38709E0FEF77E
:1035D00055FAC01BB04202D3B6F1FF3F35D1002EE1
:1035E00035D0E38F9BB29BB12268936813F0020F32
:1035F000EDD0E38F9BB2012BDED9A36B1B88D36088
:10360000A36B0233A363E38F023B9BB2E387E8E73C
:103610003A4631462046FFF747FE08B1202323668D
:10362000A36833B901932368DA6801929B68019318
:10363000019B236E6BB9002034E7012032E70120A3
:1036400030E703202EE703202CE703202AE703209E
:1036500028E7012026E702202AE72DE9F843DDF8D4
:10366000208090F85C40012C00F05C811D461746DC
:103670000E460446012380F85C30FEF7FFF98146D0
:1036800094F85D00C0B26368012814D0B3F5827F5E
:1036900009D00223012284F85D20002284F85C20F6
:1036A0001846BDE8F883A368002B40F02D8104285C
:1036B00001D00223EEE7002E00F02881002F00F059
:1036C0002781002D00F0268194F85D30DBB2042BB9
:1036D00002D0052384F85D30002323662764A4F814
:1036E0004650A4F84450A663E587A587E3642365A4
:1036F000E368B3F5E06F01D8012D22D92268536841
:1037000023F48053536023681A6812F0400F03D1EA
:103710001A6842F040021A60E368B3F5E06F56D9C8
:1037200063680BB1012D0AD1A26B23681288DA609D
:10373000A36B0233A363E38F013B9BB2E3870125B5
:1037400025E02268536843F480535360DBE7236825
:103750009A6812F0010F10D0B4F8462092B262B10C
:10376000DA68236C1A80236C02332364B4F8463081
:10377000013B9BB2A4F846300125FEF77FF9A0EB90
:103780000900404503D3B8F1FF3F40F0C580E38F07
:103790009BB22BB9B4F846309BB2002B00F0A78047
:1037A00023689A6812F0020FD1D0E28F92B2002AF9
:1037B000CDD0002DCBD0A26B1288DA60A36B023380
:1037C000A363E38F013B9BB2E3870025BFE76368F8
:1037D0000BB1012D0ED1E38F9BB2012B0CD9A26B43
:1037E00023681288DA60A36B0233A363E38F023B82
:1037F0009BB2E387012547E0A26B236812781A7316
:10380000A36B0133A363E38F013B9BB2E387F1E733
:10381000E28F92B2012A0BD9A26B1288DA60A36BF5
:103820000233A363E38F023B9BB2E38700253CE0B6
:10383000A26B12781A73A36B0133A363E38F013B6E
:103840009BB2E387002530E02268536843F480533D
:10385000536001250CE0226C1B7B1370236C013339
:103860002364B4F84630013B9BB2A4F846300125EE
:10387000FEF704F9A0EB0900404502D3B8F1FF3F81
:103880004CD1B8F1000F4BD0E38F9BB21BB9B4F809
:1038900046309BB25BB323689A6812F0020F04D0E3
:1038A000E28F92B20AB1002DB2D123689A6812F069
:1038B000010FDDD0B4F8462092B2002AD8D0B4F877
:1038C000462092B2012AC6D9DA68236C1A80236C8A
:1038D00002332364B4F84630023B9BB2A4F846306E
:1038E000B4F846309BB2012BAED90125C0E74A4659
:1038F00041462046FFF7D8FC034600283FF4CAAEF5
:10390000202323660123C5E60223C3E60123C1E683
:103910000123BFE60123BDE60323BBE60323B9E68B
:103920000323B7E60223BBE62DE9F04182B004464B
:103930000F4690461D464368B3F5827F19D094F830
:103940005C30012B00F0BD80012384F85C30FEF771
:1039500095F8064694F85D30DBB2012B15D00220B5
:10396000012384F85D30002384F85C3002B0BDE8A8
:10397000F0818368002BE2D1042380F85D3000954C
:1039800013460A46FFF769FEF0E7002F00F08B8030
:10399000B8F1000F00F08980042384F85D30002323
:1039A00023662764A4F84480A4F84680A363A38711
:1039B000E387E3642365E368B3F5E06F16D9226813
:1039C000536823F480535360A368B3F5004F13D0BA
:1039D00023681A6812F0400F03D11A6842F04002BF
:1039E0001A60E368B3F5E06F1BD93AE022685368C8
:1039F00043F480535360E7E72268136823F04003E1
:103A000013602268136823F480431360E0E7FEF735
:103A100035F8801BA84202D3B5F1FF3F47D1002DF6
:103A200047D0B4F846309BB2002B30D023689A6858
:103A300012F0010FEBD0226C1B7B1370236C01334F
:103A40002364B4F84630013B9BB2A4F84630E8E763
:103A5000FEF714F8801BA84202D3B5F1FF3F2AD12C
:103A60005DB3B4F846309BB28BB123689A6812F00C
:103A7000010FEDD0DA68236C1A80236C02332364C3
:103A8000B4F84630013B9BB2A4F84630E9E7324631
:103A900029462046FFF73BFC08B120232366236E0E
:103AA0006BB900205CE701205AE7012058E70320AA
:103AB00056E7032054E7032052E7032050E7012094
:103AC0004EE7022052E7704730B585B004460268E1
:103AD00050689368C3F3801149B913F0010F06D001
:103AE00010F0400F03D0E36C2046984708E013F035
:103AF000020F07D010F0800F04D0236D20469847A6
:103B000005B030BDC3F340151DB911B913F4807F62
:103B1000F6D010F0200FF3D079B194F85D10C9B24F
:103B2000032953D0216E41F0040121660021009148
:103B3000D168009191680091009965B1216E41F0C2
:103B4000010121660021029191680291116821F022
:103B500040011160029A13F4807F09D0236E43F074
:103B6000080323660023039323689B680393039B46
:103B7000236E002BC4D02268536823F0E003536007
:103B8000012384F85D3010F0030F27D022685368BA
:103B900023F003035360A36D4BB1124A9A63A06DE7
:103BA000FEF7BFF818B1236E43F040032366636D40
:103BB000002BA5D00B4A9A63606DFEF7B2F800287F
:103BC0009ED0236E43F04003236699E700230193C0
:103BD000D368019393680193019B91E72046FFF717
:103BE00072FF8DE7E93B000808B5806A0023A0F862
:103BF0004630C387FFF767FF08BD0268136823F0EC
:103C0000C00313602023436770470268136823F4DE
:103C1000907313600268936823F00103936020237C
:103C2000836700230366704710B5446F202C3ED194
:103C300000293ED0002A3ED090F87030012B3CD0B5
:103C400013460446012280F87020C164A0F8503069
:103C5000A0F852300022C26721224267826E8AB1E8
:103C60001749D162826E17491163826E16495163FA
:103C7000826E0021916302682832C16C806EFEF76B
:103C800015F858B9236840221A62002084F87000A1
:103C90002268936843F08003936009E01023E36790
:103CA000002384F8703020236367012000E00220A5
:103CB00010BD0120FCE70120FAE70220F8E700BF71
:103CC000793D0008C73D00081F3E000810B5846F0D
:103CD000202C43D1002943D0002A43D090F87030E3
:103CE000012B41D013460446012280F87020416523
:103CF000A0F858300022C26722228267C26E8AB1C1
:103D00001A49D162C26E1A491163C26E19495163D0
:103D1000C26E002191630168426D2431C06EFDF7CF
:103D2000C5FF90B9002084F870002268136843F43E
:103D3000807313602268936843F0010393602268E4
:103D4000936843F04003936009E01023E367002386
:103D500084F8703020236367012000E0022010BD4A
:103D60000120FCE70120FAE70220F8E7D33D000834
:103D7000133E00081F3E000808B5836A02681268F7
:103D800012F0200F0DD10022A3F8522019688A6882
:103D900022F080028A601A68136843F040031360BF
:103DA00008BD1846FDF72CFCFAE708B501680A685B
:103DB00022F040020A602022426700224266FDF79C
:103DC0001FFC08BD704708B5806AFFF7FBFF08BD00
:103DD000704708B5836A0268126812F0200F13D189
:103DE0000022A3F85A2019680A6822F480720A6037
:103DF00019688A6822F001028A6019688A6822F0CC
:103E000040028A6020229A671846FFF7E1FF08BD4A
:103E1000704708B5806AFFF7FBFF08BD704738B5EB
:103E2000846A626FA56F23689B6813F0800F01D0CE
:103E3000212A0ED023689B6813F0400F01D0222D59
:103E40000ED0E36F43F01003E3672046FFF7E6FF71
:103E500038BD0023A4F852302046FFF7CEFEE9E734
:103E60000023A4F85A302046FFF7CFFEE9E7000010
:103E700070B504460168CB6908688D6840F60F028A
:103E80001A400CD113F0200F09D010F0200F06D0EB
:103E9000236E002B00F0A180204698479DE0002A69
:103EA0007DD015F0010202D14E4E304277D013F092
:103EB000010F07D010F4807F04D001250D62E16F5F
:103EC0002943E16713F0020F07D032B121680225C0
:103ED0000D62E16F41F00401E16713F0040F07D0B8
:103EE00032B1216804250D62E16F41F00201E16702
:103EF00013F0080F09D010F0200F00D12AB122686A
:103F000008211162E26F0A43E26713F4006F0AD0DE
:103F100010F0806F07D022684FF400611162E26FE9
:103F200042F02002E267E26F002A56D013F0200F21
:103F300006D010F0200F03D0236E0BB12046984717
:103F4000E26F23689B6813F0400F02D112F0280F34
:103F50001FD02046FFF759FE23689A6812F0400FE1
:103F600013D09A6822F040029A60E36E4BB11E4A69
:103F70009A63E06EFDF7D5FE78B3E06E836B9847E9
:103F80002BE02046FFF74AFF27E02046FFF746FFD9
:103F900023E02046FFF742FF0023E3671DE013F410
:103FA000801F02D015F4800F0AD113F0800F0ED0BD
:103FB00010F0800F0BD0636E7BB1204698470CE069
:103FC0004FF480130B62204600F0C6FA05E013F0B0
:103FD000400F02D010F0400F00D170BD2046FFF717
:103FE000E4FEFAE720010004ED3F000808B5806A0E
:103FF0000023A0F85A30A0F85230FFF70FFF08BD99
:104000002DE9D84804460168836802691343426970
:104010001343C269134308689B4A024013430B6071
:104020002268536823F44053E1680B435360A1694D
:104030002268964B9A4201D0236A1943936823F46D
:1040400030630B4393602368914A934227D0914A8F
:10405000934238D0904A93424ED0904A934261D0D6
:104060008F4A934274D0894A934200F08A8010228A
:1040700086498B4200F0AA80E369B3F5004F00F057
:10408000D880082A00F24581DFE812F015012C01E2
:10409000130143012F01430143014301320102F5A2
:1040A0005842D2F8882002F00302032A09D8DFE838
:1040B00002F0020481060122DAE70422D8E708228E
:1040C000D6E71022D4E702F5E632D2F8882002F0D3
:1040D0000C020C2A0ED8DFE802F0070D0D0D090DB9
:1040E0000D0D6F0D0D0D0B000022C1E70422BFE77F
:1040F0000822BDE71022BBE702F5E432D2F888209F
:1041000002F03002102A09D005D9202A56D0302AD0
:1041100006D10822ACE71AB90022A9E70422A7E7D2
:104120001022A5E702F5E232D2F8882002F0C002A0
:10413000402A09D005D9802A42D0C02A06D10822B7
:1041400096E71AB9002293E7042291E710228FE73D
:1041500002F5E032D2F8882002F44072B2F5807F96
:104160000BD007D9B2F5007F2CD0B2F5407F06D135
:1041700008227DE71AB900227AE7042278E71022A4
:1041800076E702F5C832D2F8882002F44062B2F530
:10419000806F0BD007D9B2F5006F15D0B2F5406F24
:1041A00006D1082264E71AB9002261E704225FE71A
:1041B00010225DE702225BE7022259E7022257E75D
:1041C000022255E7022253E7022251E7082A00F2B1
:1041D0009280DFE802F0089010900D90909005001A
:1041E0004FF4004008E0FEF7DFFB28B9002074E040
:1041F000FDF7B2FFF9E72B48626802EB4203834206
:104200007BD8B0EB023F7AD80023070E0602500895
:1042100016EB000B47F1000C58466146FCF794F989
:10422000A0F54072204B9A426BD82368D8600020DA
:1042300053E0082A67D8DFE802F007210566246604
:1042400066663900174803E0FEF7AEFB00285CD035
:104250006268530803EB4003B3FBF2F39BB2A3F194
:1042600010014FF6EF72914251D823F00F02C3F3C1
:10427000420313432268D36000202EE0FEF7A6FB22
:10428000E4E7FDF769FFE1E7F369FFEF0080004035
:10429000003801400044004000480040004C00400D
:1042A000005000400024F400FFFC0F004FF40040D9
:1042B000CEE71B4802E0FEF777FB60B3636800EBD4
:1042C0005300B0FBF3F080B2A0F110024FF6EF7391
:1042D0009A4222D82368D8600020002323666366B0
:1042E000BDE8D888FEF772FBE7E7FDF735FFE4E7A6
:1042F0004FF40040E2E70120EFE70120EDE7012065
:10430000EBE70120E9E70120E7E70020E5E70120EE
:10431000E3E70120E1E70020DFE70120DDE700BF60
:104320000024F400436A13F0010F06D002685368BA
:1043300023F40033816A0B435360436A13F0020F86
:1043400006D00268536823F48033C16A0B4353607C
:10435000436A13F0040F06D00268536823F48023E5
:10436000016B0B435360436A13F0080F06D00268D9
:10437000536823F40043416B0B435360436A13F0CB
:10438000100F06D00268936823F48053816B0B43AF
:104390009360436A13F0200F06D00268936823F4F9
:1043A0000053C16B0B439360436A13F0400F0AD074
:1043B0000268536823F48013016C0B435360036C51
:1043C000B3F5801F0BD0436A13F0800F06D002684C
:1043D000536823F40023816C0B43536070470268D9
:1043E000536823F4C003416C0B435360EBE72DE9A2
:1043F000F04104460F4616469846069D2368DB6941
:1044000037EA03030CBF01230023B3423AD1B5F1CD
:10441000FF3FF3D0FDF732FBA0EB0800A8421FD806
:10442000F5B123681A6812F0040FE7D0DA6912F4C4
:10443000006FE3D04FF400621A622268136823F41D
:10444000D07313602268936823F0010393602023E4
:104450006367A367E367002384F87030032012E0EA
:104460002268136823F4D07313602268936823F0E2
:104470000103936020236367A367002384F87030EF
:10448000032000E00020BDE8F08130B583B0044691
:104490000023C367FDF7F2FA054623681B6813F093
:1044A000080F0CD123681B6813F0040F15D12023CB
:1044B0006367A367002084F8700003B030BD6FF01D
:1044C0007E430093034600224FF400112046FFF77D
:1044D0008EFF0028E6D00320EFE76FF07E430093C5
:1044E0002B4600224FF480012046FFF780FF002872
:1044F000DDD00320E1E768B310B50446436F03B392
:10450000242363672268136823F0010313602046A5
:10451000FFF776FD012813D0636ABBB922685368A0
:1045200023F4904353602268936823F02A03936036
:104530002268136843F0010313602046FFF7A5FFCC
:1045400010BD80F87030FDF7E5F9D9E72046FFF798
:10455000E9FEE3E70120704770470000DFF834D040
:10456000FDF798F9002103E00B4B5B5843500431F1
:104570000A480B4B42189A42F6D30A4A02E000233B
:1045800042F8043B084B9A42F9D300F017F8FDF7C4
:1045900091F8FEE700800120886A000800000020F2
:1045A000E0010020E001002040050020FEE70000BF
:1045B000014B1868704700BF0C00002070B50D4E0D
:1045C0000D4CA41BA4100025A54209D10B4E0C4C88
:1045D00002F05EF8A41BA4100025A54205D170BD11
:1045E00056F8253098470135EEE756F825309847BC
:1045F0000135F2E7786A0008786A0008786A0008EE
:104600007C6A000802440346934200D1704703F8D5
:10461000011BF9E72DE9FF4755EC104B0D9FDDF825
:1046200030A0002D0E4691461946B8BF22462B46B3
:1046300027F02007BBBF05F100431D4600232D23B3
:10464000B8BF1446462F0B7004D0452F00D1013659
:10465000022100E0032103AB019302AB0093324639
:10466000534645EC104B00F0DFFC472F804602D14B
:1046700019F0010F26D0462F08EB060911D198F842
:104680000030302B0AD10022002320462946FCF7B7
:104690009FFB18B9C6F10106CAF80060DAF80030CD
:1046A00099440022002320462946FCF791FB38B9A3
:1046B0003022039B4B4505D2591C03911A70F8E731
:1046C000CDF80C90039B0E9AA3EB080340461360B1
:1046D00004B0BDE8F087F7B500290446BABF4942E7
:1046E0002D232B23092904F8022B437020DD0DF123
:1046F00007031F460A2691FBF6F506FB151130311C
:10470000092D03F8011C03F1FF32294609DC303181
:10471000023B02F8011CBB42224604D3101A03B02C
:10472000F0BD1346E7E713F8012B04F8012BF2E77D
:10473000302319448370021DC170EFE72DE9F04F5B
:104740008DB00C46DDF8588016461F46054601F030
:1047500023FA036804931846FCF776F800230A93BB
:10476000D8F800300590073323F0070303F108025F
:1047700094F818A0D4F800B0C8F80020D3E90023BA
:10478000C4E91223D4E9128929F000430793CDF834
:1047900018804FF0FF32A74BDDE90601FCF74AFB1A
:1047A00070BB4FF0FF32A34BDDE90601FCF724FBA1
:1047B00030BB0022002340464946FCF713FB10B1F2
:1047C0002D2384F843309C4A9C4BBAF1470F8CBF91
:1047D0009046984603232BF00402236122604FF099
:1047E0000009009733460BAA2146284600F0E6F957
:1047F000013040F08D804FF0FF300DB0BDE8F08FFC
:1048000042464B4640464946FCF714FB10B18C4AE1
:104810008C4BDAE761684B1C4BF480620AA83ED1EE
:10482000062363600023CDE9020309AB009349EC42
:10483000108B0DF123032260CDF804A06168284697
:10484000FFF7E8FE0AF0DF03472B804609D1099BFA
:10485000D81C02DB6268934247DDAAF1020A5FFAC4
:104860008AFABAF1650F099924D80139524604F140
:1048700050000991FFF72FFF0A9A1318012A814669
:10488000236102DC2268D10701D5013323619DF841
:104890002330002BA5D02D2384F84330A1E7BAF1B3
:1048A000670F00F07781BAF1470FBBD10029B9D16A
:1048B0000123B6E7BAF1660F19D1002963680CDD50
:1048C000216113B92268D20702D501330B44236159
:1048D000099BA3654FF00009D9E713B92268D007F7
:1048E00001D50233F3E70123F1E74FF0670ADDE971
:1048F0000932934205DB22682361D107E8D50133F1
:10490000E5E7002BD4BFC3F1020301231344DEE724
:1049100023685A0507D42369424631462846B847DA
:1049200001302BD167E7BAF1650F40F2DC8000223D
:104930000023D4E91201FCF74BFA002833D00123FD
:10494000414A31462846B84701303FF454AFDDE9CB
:1049500009239A4202DB2368D8070FD5DDE9042337
:1049600031462846B84701303FF445AF4FF00008C4
:1049700004F11A090A9B013B434509DC23689B07A4
:1049800000F10381E0680B9B9842B8BF184634E7FA
:1049900001234A4631462846B84701303FF42BAF41
:1049A00008F10108E6E7099B002B2BDC0123264ACE
:1049B00031462846B84701303FF41DAF099B23B963
:1049C0000A9B13B92368D907D8D5DDE904233146FA
:1049D0002846B84701303FF40EAF4FF0000904F10C
:1049E0001A0A099B5B424B4501DC0A9B94E70123B1
:1049F000524631462846B84701303FF4FCAE09F133
:104A00000109EEE70A9AA36D9A42A8BF1A46002A46
:104A1000914607DD1346314642462846B8470130E5
:104A20003FF4E9AE04F11A034FF0000B29EAE979EB
:104A3000069315E0FFFFEF7F146800081068000878
:104A40001C68000818680008206800080123069AFE
:104A500031462846B84701303FF4CDAE0BF1010B8B
:104A6000D4F858A0AAEB09035B45EFDCDDE9092384
:104A70009A42D04415DB2368DA0712D40A9B0999BD
:104A8000A3EB0A02A3EB010A9245A8BF9246BAF132
:104A9000000F0EDC4FF000082AEAEA7A04F11A0946
:104AA00019E0DDE9042331462846B8470130E5D155
:104AB000A1E65346424631462846B8470130E9D17F
:104AC00099E601234A4631462846B84701303FF46B
:104AD00092AE08F10108DDE909239B1AA3EB0A0352
:104AE0004345EEDC4AE70A9A012A01DCDB073AD5A6
:104AF0000123424631462846B84701303FF47BAE99
:104B0000DDE9042331462846B847013008F10108A1
:104B10003FF471AE0A9B002203F1FF3AD4E912017F
:104B20000023FCF755F9C8B953464246314628469A
:104B3000B84701300ED15EE6012352463146284681
:104B4000B84701303FF457AE08F101080A9B013B1A
:104B50004345F1DC4B4604F15002DEE64FF000081D
:104B600004F11A0AF2E70123DFE701234A4631463E
:104B70002846B84701303FF43EAE08F10108E3682B
:104B80000B9A9B1A4345F0DCFCE64FF0000804F159
:104B90001909F4E700293FF48BAE0023CDE90203A5
:104BA00009AB009349EC108B2260CDF804A00DF105
:104BB00023032846FFF72EFD804648E62DE9F047FF
:104BC00091461F468A680B69DDF820809342B8BF82
:104BD0001346C9F8003091F8432006460C4612B13E
:104BE0000133C9F800302368990642BFD9F8003074
:104BF0000233C9F80030256815F0060507D104F125
:104C0000190AE368D9F800209B1AAB4228DC94F813
:104C100043302268003318BF012392062DD404F1DB
:104C2000430239463046C047013020D02368E5684A
:104C3000D9F8002003F00603042B08BFAD1AA368BF
:104C400022690CBF25EAE57500259342C4BF9B1A73
:104C5000ED184FF000091A344D451AD1002008E034
:104C60000123524639463046C047013003D14FF048
:104C7000FF30BDE8F0870135C3E7E1185A1C30204A
:104C800081F84300224494F8451082F8431002331F
:104C9000C5E70123224639463046C0470130E6D0F9
:104CA00009F10109D8E700002DE9F04301F1430CB7
:104CB0000C46097E85B06E291746064698460C9A22
:104CC00000F0B38022D8632936D00AD8002900F03A
:104CD000B980582900F0838004F1420584F842101D
:104CE00032E0642901D06929F6D1206813680506ED
:104CF00003F104012AD51B681160002B03DA2D2271
:104D00005B4284F843206F480A2239E0732900F09F
:104D10009D8008D86F2920D07029DDD1236843F009
:104D20002003236003E0752917D07829D4D1782394
:104D300084F84530644855E01368191D1B681160FC
:104D400004F1420584F8423001238CE01B681160B5
:104D500010F0400F18BF1BB2CFE713682568181D6D
:104D60001060280601D51B6802E06806FBD51B8889
:104D700054486F2914BF0A220822002184F84310E6
:104D80006568A560002DC0F29580216821F00401BE
:104D90002160002B3DD1002D40F08E806546082A11
:104DA0000BD12368DB0708D5236962689A42DEBF0E
:104DB000302305F8013C05F1FF35ACEB0503236119
:104DC000CDF800803B4603AA21463046FFF7F6FEA9
:104DD00001304DD14FF0FF3005B0BDE8F0833948C8
:104DE00084F84510136821681D1D1B6815600A06AC
:104DF0000BD5CA0744BF41F0200121601BB92268CE
:104E000022F0200222601022B7E74D0648BF9BB275
:104E1000EFE76546B3FBF2F102FB1133C35C05F823
:104E2000013D0B460029F5D1B9E713682568616992
:104E3000181D106028061B6801D5196002E06A067B
:104E4000FBD51980002323616546B9E71368191D56
:104E500011601D68626800212846FBF701FD08B15A
:104E6000401B606063682361002384F84330A7E738
:104E700023692A4639463046C0470130AAD0236804
:104E80009B0713D4E068039B9842B8BF1846A3E77A
:104E900001234A4639463046C04701309AD0013591
:104EA000E368039A9B1AAB42F2DCEBE7002504F1BE
:104EB0001909F5E7002BACD1037884F8423004F1EE
:104EC00042056CE722680008336800080EB400B59C
:104ED0009CB01DAB029006906FF00041094807910D
:104EE0000491094953F8042B05910068019302A924
:104EF00001F05EFA029B00221A701CB05DF804EB10
:104F000003B070470C0000200802FFFF2DE9F74FA7
:104F100003690C69A3428046C0F28280013C01F122
:104F200014074FEA840C00F1140657F8245056F881
:104F3000240006EB0C03013507EB0C090193B0FBD1
:104F4000F5F595B34FF0000A3846B646D34650F80B
:104F5000042B93B205FB03A34FEA134A9BB2ABEBBE
:104F60000303120CDEF800B005FB02A213FA8BF368
:104F70004FEA124A1FFA82FBDEF80020CBEB124206
:104F800002EB23429BB243EA024381454FEA224BA4
:104F90004EF8043BDBD256F80C3033B9019B043B8E
:104FA0009E421A4630D3C8F81040404601F02AF815
:104FB000002825DB013530464FF0000C57F8042B54
:104FC000D0F800E093B2ACEB0303120C13FA8EF3AB
:104FD000C2EB1E4202EB23429BB243EA0243B945B5
:104FE0004FEA224C40F8043BE8D256F8242006EB66
:104FF00084032AB9043B9E421A460BD3C8F81040DA
:10500000284603B0BDE8F08F1268043B002ACAD1DD
:10501000013CC5E71268043B002AEFD1013CEAE7F6
:105020000020EEE7000000002DE9F04F57EC106B78
:1050300097B0456A069104460B921293DDF8808082
:10504000CDE900673DB9102000F0B4FD6062C0E911
:1050500001550560C560636A196851B15A684A60B4
:10506000012393408B60204600F0EBFD636A002231
:105070001A603B1EBBBF23F00043019300230122B3
:10508000ACBFC8F80030C8F80020AF4BDDF8048092
:1050900033EA080314D1129A42F20F731360009B93
:1050A00023B9C8F31300002800F04285219BDFF8E4
:1050B000ACB2002B00F044850BF1030300F03EBDC1
:1050C000DDE900670022002330463946FBF780FE09
:1050D000814668B1129A01231360219B002B00F0D6
:1050E00024859A4B219A03F1FF3B136000F028BD01
:1050F00014AA15A947EC106B204600F0FAFFC8F37C
:105100000A550490002D7CD0C7F3130343F07F5B56
:10511000B2464BF4401BA5F2FF35CDF84C9000226F
:105120008B4B50465946FBF757F881A3D3E9002330
:10513000FBF7E6FB80A3D3E90023FBF74FF8064615
:1051400028460F46FBF796F97DA3D3E90023FBF72A
:10515000D7FB02460B4630463946FBF73FF806467A
:105160000F46FBF77DFE002282460023304639467B
:10517000FBF738FE48B15046FBF77CF932463B4618
:10518000FBF726FE08B90AF1FF3ABAF1160F59D813
:10519000704901EBCA01DDE90023D1E90001FBF709
:1051A0003FFE002850D00AF1FF3A00230F93149BD2
:1051B0005D1BB5F1010849BFC5F10103002305934B
:1051C0004FF0000858BF0593BAF1000F3EDB0023F3
:1051D000D044CDF838A00793069B092B00F29080AD
:1051E000052BC4BF043B0693069BA3F10203CCBF6F
:1051F00000250125032B00F28F80DFE803F07D7F7F
:105200003171DDE914531D4405F23240202813DDCD
:10521000C0F14000009B08FA00F805F2124023FAA2
:1052200000F048EA0000FBF715F901238246A1F1DE
:10523000F87B013D139372E7009BC0F1200003FA55
:1052400000F0F0E70123B1E70F90B0E7059BA3EB77
:105250000A030593CAF10003079300230E93BBE7EB
:1052600001230A930B9B002B59DD02939946666A32
:1052700000227260042202F114009842716853D92E
:10528000204600F0AAFC636A3060B9F10E0FD3F833
:1052900000B000F2E680002D00F0E3809DED007B81
:1052A000BAF1000F8DED107B74DD2A4A0AF00F036E
:1052B00002EBC30393ED007B4FEA2A16F0068DED57
:1052C000087B65D5244BDDE91001D3E90823FBF702
:1052D00041FCCDE9000106F00F0603251E4F4CE00E
:1052E00001230A930B9B534403F1010902934B469C
:1052F000012BB8BF0123BAE70023B2E70023F0E790
:105300000125002306930A954FF0FF330293994637
:10531000002212230B92AAE701230A93F4E7012348
:10532000029399461A46F5E7013171605200A2E7EF
:1053300061436F63A787D23FB3C8608B288AC63F9B
:10534000FB799F501344D33F0000F07F2168000891
:105350000000F83F80680008586800084D680008A1
:10536000F10708D5DDE90801D7E90023FBF7C8FA02
:10537000CDE90801013576100837002EF0D1DDE9BE
:105380000823DDE90001FBF7E5FBCDE900011AE0A8
:105390000225A3E700F0A080CAF100069F4BA04FB2
:1053A00006F00F0203EBC203D3E90023DDE910018D
:1053B000FBF7A6FACDE90001361100230225002EE5
:1053C0007FD1002BE1D10F9B002B00F08780DDE91E
:1053D00000670022934B30463946FBF703FD002857
:1053E0007CD0B9F1000F79D0029B002B35DD0AF19A
:1053F000FF330893394600228B4B3046FBF780FA87
:10540000CDE90001029F01352846FBF733F8DDE9BD
:105410000023FBF775FA0022844BFAF7DFFE0546FE
:10542000A1F15076002F5DD10022814BDDE9000112
:10543000FAF7D2FE2A463346CDE90001FBF7F0FC2D
:10544000002840F088822A4606F10043DDE9000189
:10545000FBF7C8FC002840F07C82DDE91023CDE991
:105460000023159B002BC0F25081BAF10E0F00F300
:105470004C816A4B03EBCA0393ED007B0B9B002B23
:105480008DED027B80F2D880B9F1000F00F3D4805B
:1054900040F05E820022664B51EC170BFBF730FAAE
:1054A000DDE90023FBF7B2FC4F464E46002840F0F2
:1054B000348231230BF101058BF800300AF1010A27
:1054C0002FE2F20705D5D7E90023FBF719FA0135DA
:1054D00001237610083772E7022574E7CDF820A083
:1054E0004F4691E74D4B03EBC70353E902010A9B7B
:1054F000002B47D002460B4600204E49FBF72AFB03
:105500002A463346FAF768FECDE90C015D46DDE92F
:105510000001FBF7A5FC0646FAF7ACFF02460B4676
:10552000DDE90001FAF758FE303605F8016BDDE9D8
:105530000C23CDE90001FBF755FC002863D1DDE920
:10554000002300203749FAF747FEDDE90C23FBF77B
:1055500049FC002840F0B780A5EB0B039F427FF782
:105560007CAF0022304BDDE90C01FBF7C9F90022CA
:10557000CDE90C012C4BDDE90001FBF7C1F9CDE9C8
:105580000001C4E72A463346FBF7BAF9CDE90C011E
:105590000BEB07055E46DDE90001FBF761FC074602
:1055A000FAF768FF303702460B46DDE90001FAF7EB
:1055B00013FE06F8017BAE42CDE900014FF0000278
:1055C00026D11C4BDDE90C01FAF708FE02460B461A
:1055D000DDE90001FBF724FC002874D1DDE90C2390
:1055E00000201449FAF7F8FD02460B46DDE90001F8
:1055F000FBF7F8FB00283FF430AF15F8013C302BE7
:1056000005F1FF3202D0DDF820A04AE01546F4E7AC
:10561000054BFBF775F9CDE90001BCE78068000890
:10562000586800080000F03F0000244000001C40C3
:10563000000014400000E03FDDE900675D46DDE961
:10564000022330463946FBF785FAFBF709FC804612
:10565000FAF710FFDDE90223FBF752F902460B4689
:105660003046394608F13006FAF7B6FD05F8016B09
:10567000A5EB0B06B14502460B4639D1FAF7AEFD54
:10568000DDE9022306460F46FBF7CAFBC8B9DDE990
:10569000022330463946FBF79BFB10B118F0010F8F
:1056A0000FD10499204600F0CCFA0023129A2B70F7
:1056B0000AF101031360219B002B00F041821D6061
:1056C0003EE2CDF820A015F8012C392A05F1FF3370
:1056D00008D19B450AD1089B0133089330238BF8EE
:1056E00000305B461A7801321A708CE71D46EAE7F3
:1056F00000229B4BFBF704F90022002306460F46CD
:10570000FBF766FB00289AD0CBE70A9A002A00F044
:105710008B80069A012A6EDC139A002A67D003F266
:105720003343079F059D059A01211A44204605929F
:10573000984400F026FB0646002D0CDDB8F1000F62
:1057400009DD4545059A2B46A8BF4346D21A059266
:10575000ED1AA8EB0308079BEBB10A9B002B67D05F
:105760008FB131463A46204600F0AAFB049A014622
:105770000646204600F00EFB04990890204600F0F3
:1057800060FA089B0493079BDA1B04D00499204617
:1057900000F096FB04900121204600F0F2FA0E9BE7
:1057A0000746002B00F0D0811A460146204600F043
:1057B00087FB069B012B074640DC009B002B39D161
:1057C000019BC3F31303002B36D1019B23F000434D
:1057D0001B0D1B052BB1059B0133059308F1010837
:1057E000012307930E9B002B2AD1012030E0149B4C
:1057F000C3F1360395E7079B09F1FF37BB42BFBFF3
:10580000079B0797FA1A0E9BBBBF9B180E93DF1BD3
:105810000027B9F1000FB5BF059B059DA3EB090556
:105820004B46B8BF00237EE7079F059D0A9E83E78E
:10583000079AABE70023D4E7009BD2E70023079346
:105840003B6907EB8303186900F04DFAC0F12000B3
:10585000404410F01F0047D0C0F12003042B3BDD73
:10586000059BC0F11C000344059305448044059B3F
:10587000002B05DD1A460499204600F06FFB0490CA
:10588000B8F1000F05DD39464246204600F066FBC0
:1058900007460F9B53B33946049800F0B3FB00282A
:1058A00024DA00230A220499204600F0E1F90A9B39
:1058B00004900AF1FF3A002B00F04D81002331469D
:1058C0000A22204600F0D4F9029B002B06464FDC4A
:1058D000069B022B4CDD11E0C9D0059A1C331A44FB
:1058E00005921D449844C2E70346F6E7B9F1000F5C
:1058F00038DC069B022B35DDCDF80890029B63B99E
:1059000039460522204600F0B3F9014607460498BF
:1059100000F078FB00283FF7CCAD0B9B5D466FEAAB
:10592000030A4FF000093946204600F08AF9002E9C
:105930003FF4B7AEB9F1000F05D0B14503D04946E9
:10594000204600F07EF93146204600F07AF9A8E6BC
:1059500000273E46E1E7DDF820A03E46A9E500BF6E
:10596000000024400A9BCDF80890002B00F0FA803C
:10597000002D05DD31462A46204600F0EFFA0646A6
:10598000079B002B4CD07168204600F026F9326945
:1059900002320546920006F10C010C3000F012F9BB
:1059A00001222946204600F0D9FA009BCDF814B018
:1059B00003F00103B1460793064639460498FFF702
:1059C000A5FA4946054600F13008049800F01AFB94
:1059D000324600903946204600F02EFBC36802464E
:1059E00003BB01460890049800F00CFB089A03469C
:1059F00011462046089300F024F9089BA3B9069AA3
:105A000092B9079A82B9B8F1390F29D0009B002BBF
:105A100001DD05F13108059B5D1C83F8008082E7FC
:105A20003046C2E70123E3E7009A002A04DB25D1D0
:105A3000069A1ABB079A0ABB002BECDD01220499D7
:105A4000204600F08BFA3946049000F0DBFA00287B
:105A500003DCE0D118F0010FDDD0B8F1390FD8D157
:105A6000059B059A5D1C3923137015F8013C392BF1
:105A700005F1FF324FD00133137054E7059A002B24
:105A800002F1010506DDB8F1390FE9D008F101088E
:105A9000059BC2E7029A05F8018CA5EB0B03934224
:105AA00021D000230A220499204600F0E1F8B145F4
:105AB00004904FF000034FF00A024946204605D1FA
:105AC00000F0D6F881460646059576E700F0D0F856
:105AD0003146814600230A22204600F0C9F80646D6
